:100000000C947F020C94B0020C94B0020C94B002D9
:100010000C94B0020C94B0020C94B0020C94B00298
:100020000C94B0020C948D070C948D070C948D07E2
:100030000C94B0020C94B0020C94B0020C94B00278
:100040000C94B0020C94B0020C94B0020C94B00268
:100050000C94B0020C94B0020C94B0020C94D52015
:100060000C94B0020C94A61E0C94DC1E0C94B002EE
:100070000C94B0020C94B0020C94B0020C94B00238
:100080000C94B0020C94B0020C94B0020C94B00228
:100090000C94B0020C94B0020C94B0020C9458185A
:1000A0000C94B0020C94B0020C94B0020C94B00208
:1000B0000C94B0020C94B0020C94B0020C94B002F8
:1000C0000C94B0020C94B0020C94B0020C94B002E8
:1000D0000C94B0020C94B0020C94B0020C94B002D8
:1000E0000C94B0020C944E220C947E190C9436227F
:1000F0000C94D71D0C94101F0C94711D0C940F229E
:100100000C9447090C94061F0C947B100C944A2203
:100110000C94C1060C943E100C9497140C9413226A
:100120000C9495030C9432220C941D070C941E22FF
:100130000C941E070C9420120C9421030C94801D27
:100140000C945D1D0C943D1F0C94C1140C94F71D70
:100150000C9424220C94F4040C94C3190C940922DA
:100160000C9440220C94C1150C94FC140C9496141D
:100170000C9448100C946D100C946D140C947D1913
:100180000C949D060C943C220C942E220C94282254
:100190000C94A2100C94B3100C94A8100C94871417
:1001A0000C9444220C9474140C94E31B0C94110FC3
:1001B0000C9436070C94431D0C944B100C944F1D5B
:1001C0000C9417050C94CD140C9417220C9449220E
:1001D0000C94A0060C947C190C94E8110C941B222E
:1001E0000C9452100C944F10000005072061000081
:1001F00000000000005F00000007000700147F14EB
:100200007F14242A7F2A1223130864623649552258
:10021000500005030000001C2241000041221C0088
:10022000082A1C2A0808083E080800503000000868
:1002300008080808006060000020100804023E5111
:1002400049453E00427F40004261514946214145B7
:100250004B311814127F1027454545393C4A49490E
:100260003001710905033649494936064949291EB5
:1002700000363600000056360000000814224114F3
:1002800014141414412214080002015109063249C1
:1002900079413E7E1111117E7F494949363E4141E7
:1002A00041227F4141221C7F494949417F0909017F
:1002B000013E414151327F0808087F00417F4100E3
:1002C0002040413F017F081422417F404040407F51
:1002D0000204027F7F0408107F3E4141413E7F09B6
:1002E0000909063E4151215E7F09192946464949BF
:1002F000493101017F01013F4040403F1F20402024
:100300001F7F2018207F63140814630304780403FC
:10031000615149454300007F4141020408102041DA
:10032000417F0000040201020440404040400001BF
:1003300002040020545454787F48444438384444DC
:100340004420384444487F3854545418087E0901E6
:1003500002081454543C7F0804047800447D400093
:100360002040443D00007F10284400417F40007C35
:10037000041804787C0804047838444444387C1415
:10038000141408081414187C7C08040408485454F5
:100390005420043F4440203C4040207C1C2040200E
:1003A0001C3C4030403C44281028440C5050503CE9
:1003B0004464544C44000836410000007F000000B3
:1003C0004136080008082A1C08081C2A08080006EC
:1003D00009090600000A0B02090C0D0E08070304A8
:1003E000010000000000000000000000000000000C
:1003F00000000000000000000000000000000012EB
:1004000011100000000000000000000000000000CB
:100410000000000000000000000102102020080879
:100420001020401020408002010201080402010156
:10043000020408102040808040201008040201803F
:100440000402018040201008040201080402010196
:10045000020408102040800102040810204080059A
:10046000050505070508080808020202020A0A082D
:100470000804040404010101010101010103030353
:100480000303030303040707070C0C0C0C0C0C0CF0
:100490000C0202020206060606060606060B0B0BF7
:1004A0000B0B0B0B0B000020002300260029002C57
:1004B000002F0032000001000003010601090100C5
:1004C000002200250028002B002E003100340002FD
:1004D000010000050108010B010000210024002794
:1004E000002A002D00300033000101000004010744
:1004F000010A0100F4042012C115101F1705112470
:100500001FBECFEFD1E2DEBFCDBF00E00CBF14E0D5
:10051000A0E0B2E0EEE0F4E500E00BBF02C007901F
:100520000D92A839B107D9F726E0A8E9B4E001C0D7
:100530001D92A93AB207E1F712E0CEE7D2E000E05F
:1005400006C021970109802FFE010E943B23CA3774
:10055000D10780E00807A9F70E94C4200C94F52970
:100560000C940000CF93DF93EC0168E172E08FEF11
:1005700095E00E94AC1F66E372E084EA94E00E947A
:10058000871F84EF91E0C89FB001C99F700DD89F6D
:10059000700D1124072E000C880B990BDF91CF9161
:1005A0000C945021CF92DF92EF92FF920F931F9302
:1005B000CF93DF9300D000D0CDB7DEB78C016B01B5
:1005C0007A01BC01CE0101960E9461206AE372E0CB
:1005D000CE0101960E94A920B6010E949620BC017E
:1005E0008FEF95E00E949A1FCE0101960E94C31FD3
:1005F000B80184EA94E00E949A1F84EF91E0E89E9B
:10060000B001E99E700DF89E700D1124072E000CAC
:10061000880B990B0E94502126960FB6F894DEBFE6
:100620000FBECDBFDF91CF911F910F91FF90EF9043
:10063000DF90CF90089560E472E084EA94E00C9437
:10064000AC1FCF93DF93CDB7DEB768970FB6F894A2
:10065000DEBF0FBECDBF64E472E08FEF95E00E9475
:10066000AC1F40E052EC61E070E084EA94E00E944C
:100670008D0881E090E00E94B20268E572E0CE0150
:100680000D960E94352065ED74E0CE010D960E9416
:100690009620BC01CE0101960E9461206EE672E0B8
:1006A000CE0143960E94352065ED74E0CE0143965D
:1006B0000E94962061E772E00E94A920BC01CE0151
:1006C00007960E94612041E050E0BE016F5F7F4FBE
:1006D000CE0107960E94D202CE0107960E94C31F48
:1006E000CE0143960E94C31FCE0101960E94C31FF4
:1006F000CE010D960E94C31F40E05BE460E070E015
:1007000084EA94E00E948D0864EF71E080E090E05C
:100710000E9450210E941B0368960FB6F894DEBF1A
:100720000FBECDBFDF91CF910895CF93DF93CDB7AB
:10073000DEB762970FB6F894DEBF0FBECDBF64E799
:1007400072E08FEF95E00E94AC1F81E090E00E9484
:10075000B2026EE872E0CE0101960E9435206DEB88
:1007600072E0CE0107960E94352041E050E0BE01C4
:100770006F5F7F4FCE0107960E94D202CE0107968F
:100780000E94C31FCE0101960E94C31F62EC72E05B
:10079000CE0101960E94352066EF72E0CE010796E9
:1007A0000E94352041E050E0BE016F5F7F4FCE01D7
:1007B00007960E94D202CE0107960E94C31FCE0167
:1007C00001960E94C31F6BEF72E0CE0101960E945A
:1007D000352064E273E0CE0107960E94352041E0A7
:1007E00050E0BE016F5F7F4FCE0107960E94D2029C
:1007F000CE0107960E94C31FCE0101960E94C31F1F
:100800006CE273E0CE0101960E9435206FE373E045
:10081000CE0107960E94352041E050E0BE016F5F97
:100820007F4FCE0107960E94D202CE0107960E940A
:10083000C31FCE0101960E94C31F64E473E0CE0182
:1008400001960E94352064E573E0CE010D960E946A
:1008500035206FEC74E0CE010D960E949620BC010D
:10086000CE0107960E94612041E050E0BE016F5F1B
:100870007F4FCE0107960E94D202CE0107960E94BA
:10088000C31FCE010D960E94C31FCE0101960E9488
:10089000C31F68E573E0CE0101960E94352063E72F
:1008A00073E0CE0107960E94352041E050E0BE0182
:1008B0006F5F7F4FCE0107960E94D202CE0107964E
:1008C0000E94C31FCE0101960E94C31F69E773E017
:1008D000CE0101960E94352060E873E0CE010796B4
:1008E0000E94352045E050E0BE016F5F7F4FCE0192
:1008F00007960E94D202CE0107960E94C31FCE0126
:1009000001960E94C31F80E00E94210364E873E007
:100910008FEF95E00E94AC1F62960FB6F894DEBF91
:100920000FBECDBFDF91CF9108950F931F9326E0A7
:1009300040E855E260E070E08FEF95E00E94441ED1
:1009400080E00E94210360E0809106020E94522212
:1009500010920A0210920B0210920C0210920D02D9
:1009600060E080910F020E945222109213021092B6
:100970001402109215021092160269EA73E08FEFCA
:1009800095E00E94AC1F70E060E081E295E00E947B
:10099000E61160E081E295E00E94FD1128EE31E170
:1009A0004FEF68EE71E081E295E00E94730F6CE01A
:1009B00070E088E994E00E94391A81110DC003E0CB
:1009C00010E023E030E043E050E06EEB73E081E2C2
:1009D00095E00E94B311FFCF61ED73E08FEF95E0DA
:1009E0001F910F910C94AC1F0F931F9361EE73E056
:1009F00085ED94E00E94352066EE73E08FEC94E084
:100A00000E94352020E04BE06AE084EA94E00E94F6
:100A1000620805E315E028E247E350E060E070E09B
:100A200088E994E00E94C5191F910F91089584EA06
:100A300094E00E9409088FEC94E00E94C31F85EDAA
:100A400094E00C94C31F6F927F928F929F92AF920B
:100A5000BF92CF92DF92EF92FF920F931F93CF93AB
:100A6000DF93CDB7DEB7C458D1090FB6F894DEBF17
:100A70000FBECDBF0E941F216B017C018091CB0472
:100A80009091CC04A091CD04B091CE04A701960121
:100A9000281B390B4A0B5B0BDA01C9010897A1052A
:100AA000B10508F434C1C092CB04D092CC04E092DA
:100AB000CD04F092CE048091C7049091C804A09117
:100AC000C904B091CA040196A11DB11D8093C70449
:100AD0009093C804A093C904B093CA048091C3043E
:100AE0009091C404A091C504B091C604A7019601D9
:100AF000281B390B4A0B5B0BDA01C9018A3F9105B0
:100B0000A105B10508F4BEC0CF57DF4F1882C15808
:100B1000D0408E010F571F4F9E012E573F4FAE0101
:100B20004D575F4FBE016C577F4F88E994E00E949C
:100B3000AA1ACF57DF4F8881C158D0401F928F9398
:100B4000CE57DF4F8881C258D0401F928F93CD5728
:100B5000DF4F8881C358D0401F928F93CC57DF4F0F
:100B60008881C458D0401F928F938BEF93E09F935E
:100B70008F935E013DE2A30EB11CBF92AF920E9423
:100B80001F27FF92EF92DF92CF928FE094E09F9326
:100B90008F93AE014F5F5F4F4A015F934F930E9467
:100BA0001F2702E010E030E020E050E040E0B50117
:100BB00081E295E00E94B31128E030E050E040E08F
:100BC000B40181E295E00E94B311C092C304D092B7
:100BD000C404E092C504F092C6046090C70470900B
:100BE000C8048090C9049090CA049F928F927F920B
:100BF0006F9286E194E09F938F935E015DE6A50E70
:100C0000B11CBF92AF920E941F2720E130E050E05C
:100C100040E0B50181E295E00E94B311B301C40147
:100C20000E9401244B015C01C701B6010E94FF2311
:100C300020E030E04AE754E40E9457239B01AC01D6
:100C4000C501B4010E9457230E94C9237F936F936B
:100C500081E294E09F938F937E0189E5E80EF11C79
:100C6000FF92EF920E941F270FB6F894DEBF0FBECF
:100C7000CDBF28E130E050E040E0B70181E295E0EF
:100C80000E94B31184EA94E00E94360718161906F0
:100C900054F484EA94E00E94A006682F8FEF95E058
:100CA0000E948F1FEFCF8FEF95E00E94431D181613
:100CB000190654F48FEF95E00E945D1D682F84EAB9
:100CC00094E00E948F1FEFCF4AE150E0BE016F5FBA
:100CD0007F4F88E994E00E946B1C809106020E947D
:100CE000BC22019739F4E0910702F091080280914B
:100CF0000902199580910F020E94BC22019739F4D4
:100D0000E0911002F0911102809112021995CC57D6
:100D1000DF4F0FB6F894DEBF0FBECDBFDF91CF918E
:100D20001F910F91FF90EF90DF90CF90BF90AF9009
:100D30009F908F907F906F90089590E080E008954D
:100D400020911D0530911E0528173907B9F490919F
:100D5000DB048091DC04981789F0E091DB04F0E07B
:100D6000E352FB4F80812091DB0430E02F5F3F4F47
:100D70002F7333272093DB0490E008958FEF9FEFCC
:100D80000895EF92FF920F931F93CF93DF93DC01AF
:100D90005C96ED90FC905D97E114F10479F481E0AC
:100DA00090E013969C938E93129790E080E0DF91F1
:100DB000CF911F910F91FF90EF9008955196ED9173
:100DC000FC91529750968C915097982F90950FB711
:100DD0005E962C915E97122F127021FD6095F8940B
:100DE0002081112319F1282B2083E7012197F1F7A6
:100DF00028E0462F50E0308160FF1AC0382B308346
:100E0000E7012197F1F7BA0175956795215089F7A8
:100E1000112381F08081892380830FBF5C968D919F
:100E20009C910197F1F781E090E0C1CF2923DCCFBD
:100E30003923E5CF9081892BEFCF089520911D05AF
:100E400030911E052817390771F49091DB048091C9
:100E5000DC04981741F0E091DB04F0E0E352FB4F33
:100E6000808190E008958FEF9FEF089520911D05F8
:100E700030911E052817390771F48091DC04209108
:100E8000DB0490E0805C9F4F821B910960E470E07E
:100E90000E94E622089590E080E00895E0911D050B
:100EA000F0911E05E817F90769F4A389B4899C91AC
:100EB0008589809589238C9310921E0510921D05BB
:100EC00081E0089580E00895CF93DF93EC018A8D4F
:100ED0009B8D892B01F180911D0590911E058C172A
:100EE0009D07C9F0009711F00E944E078E8D8E7FEE
:100EF0008E8F1092DC041092DB04D0931E05C093F9
:100F00001D05EB89FC8980819D89892B808381E087
:100F1000DF91CF91089580E0FBCF1F920F920FB623
:100F20000F9211240BB60F922F933F934F935F9321
:100F30006F937F938F939F93AF93BF93EF93FF93A1
:100F4000E0911D05F0911E05309749F0A685B78503
:100F50008585968D91FF16C09C918923B1F4FF91F0
:100F6000EF91BF91AF919F918F917F916F915F9121
:100F70004F913F912F910F900BBE0F900FBE0F908E
:100F80001F9018959C91892351F7A389B4899C914E
:100F90008589809589238C93868997890197F1F7B4
:100FA000608D718DA685B785558538E020E0CB0131
:100FB0000197F1F7822F90E095958795282F4C9116
:100FC000452309F02068315091F7868D81FD2095E9
:100FD0008091DC0490E001968F7399273091DB04B7
:100FE000381799F0A091DC04B0E0A352BB4F2C93CA
:100FF0008093DC04828D938D0197F1F7A389B489E6
:101000008C919589892B8C93AACF868D8160868F50
:10101000F1CF26E334E0FC01318320830C944E07AA
:101020001F93CF93DF93EC01162F6E8D6695617041
:1010300081E06827812F0E948E2261E0812F0E942B
:101040005222812F90E0FC01E75EFB4FE491E88B98
:10105000FC01E15AFB4FE491F0E0EE0FFF1FE15479
:10106000FB4F859194919A8B898BDF91CF911F9142
:1010700008951F93CF93DF93EC01162F60E0812F2B
:101080000E9452228E8D81FD04C061E0812F0E945A
:101090008E221C87812F90E0FC01E75EFB4FE491DC
:1010A000ED87FC01E15AFB4FE491F0E0EE0FFF1FEA
:1010B000EB55FB4F859194919F878E87DF91CF9160
:1010C0001F9108951F93CF93DF93EC01162F1B827E
:1010D0001A8288EE93E0A0E0B0E08C839D83AE831B
:1010E000BF8386E394E0998388831F8A1E8A198EC2
:1010F000188E1B8E1A8E1D8E1C8E8E8D8E7F20FB61
:1011000081F98E8F642FCE010E941008612FCE01CD
:10111000DF91CF911F910C943908CF93DF93EC01AD
:101120009A01AB011B8E1A8E198E188E1F8A1E8A89
:1011300060E079E08DE390E00E941C23B901C901D1
:1011400003972430310510F481E090E09D8F8C8F5F
:101150008C8596EF980F943048F0EEECE80FE43071
:1011600028F0E2ECE80FE83008F069C0F901F695E4
:10117000E795E431F10508F467C07397FF8BEE8BB8
:101180006630710508F463C0B90165507109798F43
:10119000688FB901660F771F260F371F3695279581
:1011A000369527952D30310508F454C02C5031095F
:1011B0003B8F2A8F943050F02EEC280F243030F0E3
:1011C00022EC280FF0E0E0E0283010F4E8E6F0E050
:1011D0002081943028F032EC380F383008F43DC0CC
:1011E00031E0232B943048F09EEC980F943028F097
:1011F0008E53F0E0E0E0883010F4E8E6F0E0208381
:101200002C8536EF320F343050F18EEC820F843063
:1012100030F182EC820F883028F190E080E09C8BE6
:101220008B8B343010F52650330B81E001C0880FD2
:101230002A95EAF78D8B8C8D9D8D0197F1F7CE0164
:10124000DF91CF910C946407E1E0F0E097CF61E08B
:1012500070E09DCF21E030E0ABCF34E0C2CF8BE631
:1012600090E0DDCF8DE690E0DACF88E0223311F315
:1012700084E02333F9F282E02433E1F282EC820F3E
:10128000883018F42E53330BD0CF81E0D3CF08959C
:10129000CF93DF93EC010E9424121B821A8288E410
:1012A00094E0998388831F8218868FE789878FE36C
:1012B0008A871B861C861D861E86DF91CF91089526
:1012C0002F923F924F925F926F927F928F929F9256
:1012D000AF92BF92CF92DF92EF92FF920F931F9344
:1012E000CF93DF9300D0CDB7DEB79B838A83F62EF2
:1012F000742E422E502E242F2E0D3327331F02170B
:1013000013060CF46EC0242F277081E090E001C01A
:10131000880F2A95EAF733243A94380E342F387F11
:101320003983AA24A394B12C22242A942E0C4F147E
:1013300008F45DC049816F2D8A819B810E946912EA
:101340008A819B810E94A512182F1321072D0E0D53
:10135000402F487F6F2D8A819B810E9469128A816C
:101360009B810E94A512982ED02EDE188D2D87709D
:10137000882E501608F451C0892D90E0202F277038
:1013800002C0959587952A95E2F780FF07C0C501B1
:10139000082C01C0880F0A94EAF7182B0F5F802FE2
:1013A000877071F4003460F4402F487F6F2D8A817C
:1013B0009B810E9469128A819B810E94A512982EAE
:1013C00097E08912D1CF4D2D487F6F2D8A819B8167
:1013D0000E946912612F8A819B810E94C81210E0CD
:1013E000C3CFEC2C242D8A819B810E9476130F9011
:1013F0000F900F90DF91CF911F910F91FF90EF9081
:10140000DF90CF90BF90AF909F908F907F906F9024
:101410005F904F903F902F9008956D2C862D877090
:10142000882E0615F1F09501082E01C0220F0A94AE
:10143000EAF79FEFC91212C0122B873069F4462DCC
:10144000487F6F2D8A819B810E946912612F8A815A
:101450009B810E94C81210E06394E0CF2095122374
:10146000ECCF8823C1F04D2D420D487F6F2D8A812E
:101470009B810E9469128A819B810E94A512B501FD
:1014800001C0660F8A94EAF761956823612B8A810F
:101490009B810E94C812F3944ACF3F924F925F9271
:1014A0006F927F928F929F92AF92BF92CF92DF9274
:1014B000EF92FF920F931F93CF93DF93EC01D62E01
:1014C000742E622E902E242F2E0D3327331F0217D9
:1014D00013060CF452C0202F27702F5F81E090E09C
:1014E00001C0880F2A95EAF7882E8194302F387F23
:1014F000432EAA24A394B12C81E0582E5E186D14BB
:1015000008F440C0442D6D2DCE010E946912CE0119
:101510000E94A512182F1821092D0E19402F487F5F
:101520006D2DCE010E946912CE010E94A512382EA7
:10153000F92C0715C8F50E2D3F2C3E18432D400FF2
:10154000002309F46AC0242F2770C501022E01C0B0
:10155000880F0A94EAF73FEFC3125CC0182B2111E1
:101560000AC0487F6D2DCE010E946912612FCE0105
:101570000E94C81210E00150E1CFEC2C262DCE01C4
:101580000E947613DF91CF911F910F91FF90EF9002
:10159000DF90CF90BF90AF909F908F907F906F9093
:1015A0005F904F903F9008952F2D2770832D90E0EE
:1015B000302F377002C0959587953A95E2F780FFF6
:1015C00007C0C501022E01C0880F0A94EAF7182B44
:1015D00021110BC04F2D487F6D2DCE010E94691245
:1015E000612FCE010E94C81210E0FA94002309F482
:1015F000A2CF0150802F8770873009F09ACF402FFB
:10160000487F6D2DCE010E946912CE010E94A51265
:10161000382E8FCF80951823A2CF452D4F0D042F44
:10162000077099F0487F6D2DCE010E946912CE019E
:101630000E94A512B50101C0660F0A95EAF7615034
:101640006823612BCE010E94C812D39458CFCF9249
:10165000EF920F931F93CF93DF936A3009F08FC0FF
:10166000EC018D819E81E0911F05F091200503968C
:101670001995182FE0911F05F09120058D819E810D
:10168000199581110BC08D819E81E0911F05F0910C
:10169000200501961995813009F411506C85298532
:1016A000621768F44D8581E09C819F3F09F480E0DA
:1016B000E82EE194042F010FCE010E9476138D8550
:1016C000682F70E0212F30E09B8590FD35C00A85A2
:1016D000220F331F260F371F0217130609F02CF5B0
:1016E0009E85911109C081E08E87DF91CF911F9176
:1016F0000F91EF90CF90089591E02C812F3F09F446
:1017000090E0C92EC194EE24E394E80EE01A812FF4
:10171000880FE80E298548856F81CE010E946009F7
:101720008F818C878A85811B04C09F819C878F5FF6
:10173000810F8D8781E0D9CF4885240F311D261771
:10174000370724F49F819C878150EDCF9E85992394
:1017500051F291E02C812F3F09F490E0C92EC19401
:10176000EE24E394E80EE41AE10E0A8529856F81E0
:10177000CE010E944D0A8F818C878885DACF80E068
:10178000B4CF2F923F924F925F926F927F928F923F
:101790009F92AF92BF92CF92DF92EF92FF920F9300
:1017A0001F93CF93DF93CDB7DEB76C970FB6F89446
:1017B000DEBF0FBECDBFDC0115962D913C91232BD2
:1017C000D9F490E080E06C960FB6F894DEBF0FBEBF
:1017D000CDBFDF91CF911F910F91FF90EF90DF90E0
:1017E000CF90BF90AF909F908F907F906F905F90C1
:1017F0004F903F902F900895962E9C8F8B8FBFE136
:10180000B61708F0A5C1EB8DFC8D85819681E0911E
:101810001F05F091200503961995782EAB8DBC8D90
:1018200015968D919C91E0911F05F09120050496ED
:101830001995E82EEB8DFC8D85819681E0911F0531
:10184000F0912005059619959E1408F4BACF082F3B
:1018500010E0C8018E0D911D981619060CF0B1CF3D
:10186000272D30E03D832C83690137E0C30ED11C66
:1018700063E0D594C7946A95E1F79E18E0911F053F
:10188000F0912005AB8DBC8D15968D919C9119958D
:10189000582E811167C1EB8DFC8D85819681E09179
:1018A0001F05F091200501961995823008F05AC164
:1018B000AB8DBC8D15968D919C91E0911F05F0919B
:1018C000200502961995E82E9C9C90019D9C300D58
:1018D0001124829F1001839F300C1124B6E02B0E3F
:1018E000311CEE2009F46DCFEB8DFC8D86858823AD
:1018F00041F06AE0CF010E94C10BAB8DBC8D1E96FA
:101900001C92EB8DFC8D1485E0911F05F091200554
:10191000AB8DBC8D15968D919C9116978E2C912C2C
:101920001B962C9121FF0DC00296199590E0881905
:10193000990997FD019695958795810FEB8DFC8D03
:101940008487AB8DBC8D1C960C911C97080D192DAE
:10195000111DE0911F05F091200515968D919C9128
:10196000199581110DC0EB8DFC8D85819681E091DB
:101970001F05F09120050196199591E0813009F03D
:1019800090E0091B1109AB8DBC8D19968C911997AC
:10199000801711065CF56AE0CD010E94C10BEB8D4A
:1019A000FC8D8685882341F06AE0CF010E94C10B3F
:1019B000AB8DBC8D1E961C92EB8DFC8D838581FFBB
:1019C00015C0148585819681E0911F05F091200551
:1019D0000296199590E08819990997FD01969595B9
:1019E0008795810FAB8DBC8D1C968C93E0911F0564
:1019F000F0912005AB8DBC8D15968D919C9119951C
:101A0000882309F4E0C044244394470C00E0272DC8
:101A100030E0388F2F8BA1014E0D511D5A8F498F09
:101A200028E030E0872D8770D901A81BB109BC8759
:101A3000AB87E42DF0E0FE87ED87AB8DBC8D1C9667
:101A40006C911C97041508F0A7C11D96FC901D977A
:101A5000F00E4F2D487FCD010E946912802F869590
:101A6000869586958E9DF0011124FF83EE83B12C1F
:101A7000A12C202F30E03B832A83C901887F4C8131
:101A80005D81481B590B5A8B498B5F2D57705887C6
:101A90008F89988D821B930B9A878987850F911D5B
:101AA0009C8B8B8B298D3A8D2E0F3F1F3E8B2D8B60
:101AB000AE1408F003C110E0071508F58E819F8170
:101AC000820D931D8A0D9B1DAB8DBC8D15962D919E
:101AD0003C91E0911F05F0912005820F931F19950D
:101AE000182F552061F0E989FA89389744F490E07D
:101AF0000B8402C0959587950A94E2F7182FAB8D59
:101B0000BC8D14968C91811101C01095802F8F2966
:101B1000877009F067C08D859E85EA81FB818E1BE9
:101B20009F0B08970CF45EC0AB8DBC8D1B968C91FF
:101B30001B9782FF04C0CD010E94A512182B612FB4
:101B40008B8D9C8D0E94C812FFEFAF1ABF0AB0CFD9
:101B50008B8D9C8D0E94270B882309F454CE81E045
:101B600090E031CEF12CE12CB12CA12CE0911F059D
:101B7000F0912005AB8DBC8D15968D919C91E9144B
:101B800060F497012A5F3F4F820F931F1995A80EAB
:101B9000B11CBFEFEB1AFB0AE9CFCA9C1001CB9C2A
:101BA000300CDA9C300C11240A5F1F4F200E311EBE
:101BB000692D70E06A5F7F4F860F971F1995E82E99
:101BC000552453948ECEEB8DFC8D85819681E091CA
:101BD0001F05F091200501961995813009F013CF6A
:101BE000472C14CF8B8D9C8D0E94A512682EB88532
:101BF000BF5FB983C984DA84ED89FE89EA0DFB1DD4
:101C0000F88BEF87872D8C1987702B893C892C19CD
:101C10003D0941E050E002C0440F551F2A95E2F70C
:101C20009A01412F50E0082E02C0559547950A941D
:101C3000E2F740FF40C0622A873021F5AB8DBC8DB2
:101C400015968D919C91E0911F05F09120052F85AF
:101C50003889820F931F1995182F552061F039E0AC
:101C6000C316D10444F490E00B8402C09595879587
:101C70000A94E2F7182FAB8DBC8D14968C918111CC
:101C800001C01095B981B83059F0F981FF5FF9832F
:101C900021E0C21AD108872D8C19841508F4B2CF1F
:101CA000EB8DFC8D838582FF04C0CF010E94A512BD
:101CB000682A662D45CF20956222BECFE0911F0590
:101CC000F0912005AB8DBC8D15968D919C91199549
:101CD0001F2D1770882309F441C0CD84DE84C01AFB
:101CE000D108112309F44AC08B8D9C8D0E94A51246
:101CF00020E0112341F021E030E0012E01C0220F4D
:101D00000A94EAF7215038E0C316D10444F441E0C4
:101D100050E001C0440FCA94EAF74195242BAB8DE3
:101D2000BC8D14969C91F22EF822911103C020953F
:101D3000F22EF82AAB8DBC8D1B968C9182FF08C0C9
:101D4000BFEFFB1629F08B8D9C8D0E94A512F82AFF
:101D50006F2D8B8D9C8D0E94C8120DC0EB8DFC8D5C
:101D600085819681E0911F05F091200501961995D6
:101D7000813009F0B2CF011B085F5FCEF8E0CF16CB
:101D8000D1040CF4B1CF81E0EB8DFC8D94819111E5
:101D900080E0F82EF194CECF6E0DEB8DFC8D648734
:101DA000E0911F05F0912005AB8DBC8D15968D91AE
:101DB0009C9116971B962C9121FF13C002961995A2
:101DC000EB8DFC8D24852E19280F90E08819990938
:101DD00097FD019695958795281BAB8DBC8D1C961C
:101DE0002C93E0911F05F0912005AB8DBC8D1596CD
:101DF0008D919C911995882331F0EB8DFC8D848514
:101E00008F5F8487ACCEAB8DBC8D15968D919C91E8
:101E1000E0911F05F091200501961995813069F731
:101E20009ECE6D3011F00C94C10B81E090E00895CE
:101E30000F931F93CF93DF938C01EB01699166237E
:101E400021F0C8010E94C10BF9CFDF91CF911F9102
:101E50000F910895FC018781680F64878085480F82
:101E6000458716860895CF92DF92EF92FF920F93E7
:101E70001F93CF93DF93EC016B01FC841D858D8153
:101E80009E81E0911F05F091200503961995082F7A
:101E9000EE24E3949C819F3F09F4E12CE19481E0DE
:101EA000C816D104C1F078F082E0C816D104C1F0A0
:101EB000FC861D87DF91CF911F910F91FF90EF90CE
:101EC000DF90CF900895010F2985412F6F2DCE010E
:101ED0000E947613EDCF010F2F2D412F6F81F7CF89
:101EE000010F2985FACFFC017683658330932005A5
:101EF00020931F05448308950F931F93CF93DF937F
:101F00008C01C62FE0911F05F0912005DC0115968C
:101F10008D919C911995811127C0F8018581968139
:101F2000E0911F05F0912005019619958230E0F4AB
:101F3000D80115968D919C91E0911F05F091200597
:101F400002961995C82FE0911F05F0912005D80140
:101F500015968D919C9119958823F1F08C2FDF9126
:101F6000CF911F910F910895F80185819681E0919D
:101F70001F05F091200504961995D82FD8011596C4
:101F80008D919C91E0911F05F09120050596199582
:101F9000CD1778F4C0E0E2CFF80185819681E09119
:101FA0001F05F0912005019619958111D7CFCF5FBC
:101FB000D5CF2D2F280F3327331FC217130654F701
:101FC000E0911F05F0912005D80115968D919C9107
:101FD00016971B962C9121FF05C002961995C1E01A
:101FE000C80FBCCFCD1B2C2F30E02A5F3F4F820F94
:101FF000931FF4CF1F93CF93DF93EC018D819E81CC
:1020000010E0009789F0E0911F05F09120050396FC
:102010001995182FE0911F05F09120058D819E8163
:102020001995882331F01F5F812FDF91CF911F9188
:1020300008958D819E81E0911F05F0912005019604
:102040001995813081F7F0CF0F931F93CF93DF93D2
:102050006A30710508F0A0C0FB018C018827EC5C98
:10206000FF4E8F4F0C943B233E1048104B104F10E7
:1020700052106D107B10A210A810B310D801179643
:10208000CC91D0E0CE01DF91CF911F910F910895B7
:10209000F801C085F6CFD8011996CC91F2CFF8019E
:1020A000C285EFCFD80115968D919C911697892BFB
:1020B00009F472C01996CC91199717968C91C81B88
:1020C000DD0B219666E070E0C8010E942410BC017F
:1020D000CE010E94E622EB01D5CFF80185819681E1
:1020E000892B09F459C0C2858085C81BDD0B219658
:1020F00067E070E0E9CFD80115968D919C9100972B
:1021000009F44AC0E0911F05F09120050296199547
:10211000C82FD0E0E0911F05F0912005D801159659
:102120008D919C9119958111ADCFF8018581968192
:10213000E0911F05F0912005019619958111A2CF1C
:102140002196A0CF60E0C8010E94FA0FC82F99CF56
:10215000D80115968D919C91E0911F05F091200575
:1021600004961995F3CFF80185819681E0911F05BA
:10217000F091200504961995C82FD80115968D91D8
:102180009C91E0911F05F091200505961995C80FC7
:10219000DD27DD1F219776CFD0E0C0E073CFFF921F
:1021A0000F931F93CF93DF93FC0125813681232B5F
:1021B00009F1142F062FEC0166E070E00E94241054
:1021C000F82E60E0CE010E94FA0F2F81322F0F9D72
:1021D000300D11243C879885F92F189FF00D11249C
:1021E000FD874985341718F43A85F31710F02C87CA
:1021F0009D871E86DF91CF911F910F91FF900895CB
:10220000DF92EF92FF920F931F93CF93DF937C01A6
:10221000E901FC01378121852F5F231B822F90E08C
:10222000681779070CF4CB014A3BFBE05F07C1F16B
:1022300094F4D12C493B8BE05807C9F0D42E57FFBA
:1022400016C0642F619540E0C7010E94CF10F701CE
:102250002485878125C04D3BEBE05E07E1F04E3BD6
:10226000FBE05F0759F7F7012485D22ED31ACC3B48
:10227000FBE0DF0709F44EC0B4F440E0CB3B8BE059
:10228000D807C9F14C2FD7FF36C0419560E0C70190
:102290000E94CF1010C0269597FD019695958795C1
:1022A000D22ED81AE4CFCD3BEBE0DE0741F0CE3B97
:1022B000FBE0DF0739F7F7014585808535C0F70179
:1022C00042858085481B550B4F5F5F4F57FF02C00B
:1022D0004F5F5F4FEA01D595C79560E0C7010E9447
:1022E000FA0F90E09C012150310937FD9C01359592
:1022F00027954C2F421B6D2DC7010E942A0FB80154
:10230000C701DF91CF911F910F91FF90EF90DF9068
:102310000C94330FF701D085C285CF5F60E0C70111
:102320000E94FA0F4C2F4D1B481BE5CFEF92FF92F6
:102330000F931F93CF93DF937C018B01D0E0C0E01C
:10234000F80161918F01662331F0C7010E947C0F73
:10235000C80FD11DF5CFCE01DF91CF911F910F9105
:10236000FF90EF900895AF92BF92CF92DF92EF92DD
:10237000FF920F931F93CF93DF93EC017B016A01D0
:1023800059010E949611BC0177279501A601CE0143
:102390000E940011B701CE01DF91CF911F910F91E3
:1023A000FF90EF90DF90CF90BF90AF900C94180FFC
:1023B000CF93DF93EC010E94480984E594E0998370
:1023C000888310923405DF91CF9108950C941414F2
:1023D000FC01849108950F931F93CF93DF93EC0139
:1023E000162F042F0E946912402F612FCE01DF911A
:1023F000CF911F910F910C942A0FFF920F931F936F
:10240000CF93DF938C01F62EC0E04C2F60E0C80123
:102410000E94EB11D0E06F2D81E295E00E94C8127E
:10242000DF5FD038C1F7C85FC03479F740E060E0C3
:10243000C801DF91CF911F910F91FF900C942A0F4B
:1024400081E295E00C94D8110895613019F4449814
:10245000439A0895449A439808950E94251211B80A
:102460008FEF82B9429A4198409AC89500C080B1D6
:10247000409808950E94251211B8429A4198409AB6
:10248000C89500C00799FECF409808956091300527
:1024900062956695669563700E943A12429A419AD7
:1024A00000C0409AC89500C080B140980895CF936D
:1024B000C62F642F0E943A12429841988FEF81B93B
:1024C000C2B900C0409AC895C89500004098CF9105
:1024D00008950F931F93CF93DF9320913005261318
:1024E00004C020913105241759F167FD29C04034FB
:1024F00038F5C62F8C016093300540933105D62FF7
:10250000D295D695D695D370642F669566956695C7
:10251000ED2FF0E0E05DFA4F8281681731F06283C1
:10252000686B4D2FC8010E9457126C2F6F73606447
:102530004D2FC801DF91CF911F910F910C9457122D
:10254000DF91CF911F910F9108950F931F93CF9318
:10255000DF930091300510E007FD14C0EC010E94EC
:102560004612CE010E944612182F80913405811127
:1025700010958FEF8093300540913105602FCE018B
:102580000E946912812FDF91CF911F910F910895C1
:10259000BF92CF92DF92EF92FF920F931F93CF9350
:1025A000DF93EC01062FF0903005F7FC95C0F29414
:1025B000F694F69483E0F822809131058770B82E66
:1025C00009F463C0CE010E94A512E82E6F2DCE0142
:1025D0000E943A124298419A8FEF81B900C0409A06
:1025E00010E0CB2CD12CC80101C0880FBA94EAF7B7
:1025F0008E29909134059111809582B9C895C8951E
:1026000000004098B09031058B2D90E00896887FAF
:102610008034910584F0609130056F5F4B2DCE01C1
:10262000DF91CF911F910F91FF90EF90DF90CF90AE
:10263000BF900C94691248E04B0D487F60913005C3
:10264000CE010E946912CE010E94A512E82E6F2DC4
:10265000CE010E943A124298419A8FEF81B900C090
:10266000409A88E090E08C199D0902C01595079565
:102670008A95E2F70E29809134058111009502B9FF
:10268000C895C89500004098C6CF6F2DCE010E9416
:102690003A124298419A8FEF81B9809134058111A5
:1026A000009500C0409A02B9C895C89500004098AE
:1026B000609130056F5F60933005862F8295869517
:1026C000869583708F1541F067FD06C08FEF80936C
:1026D000300540913105A3CFDF91CF911F910F912C
:1026E000FF90EF90DF90CF90BF9008957F928F92F0
:1026F0009F92AF92BF92CF92DF92EF92FF920F9391
:102700001F93CF93DF935C01D62F041B0F5F261B13
:1027100011E0120F842F8770C42FC81B802E912CBC
:1027200028E030E0A901481B51098416950644F5BC
:1027300028193909CC24CA94D12C02C0D594C79445
:102740002A95E2F7F02E01C0CC0C8A95EAF77C2C92
:102750004C2F6D2FC5010E946912D12CC094D11647
:10276000A8F4C5010E94A5129FEF672D682BE916FA
:1027700011F06C2D6823C5010E94C812D394EFCFCD
:1027800098E0F92EF81ACC24CA94DDCFFC1A2F2D2C
:102790002C0F822F90E0AC01495F5F4F481559051F
:1027A0007CF4C85F4C2F6D2FC5010E946912D12C9B
:1027B000D11668F76E2DC5010E94C812D394F8CFC8
:1027C000201720F5881A990A8FEF90E001C0880F32
:1027D0008A94EAF7082F009548E04C0F6D2FC50149
:1027E0000E946912C0E0D02FD095C11778F4C501BE
:1027F0000E94A5129FEF602F682BE91611F06D2F34
:102800006823C5010E94C812CF5FEFCFDF91CF913F
:102810001F910F91FF90EF90DF90CF90BF90AF90FE
:102820009F908F907F900895EF92FF920F931F9348
:10283000CF93DF93EC01399A3A9A389A40983C9AB0
:1028400044983B9A4398429841988FEF8093300583
:10285000809331056093340562E370E080E090E09E
:102860000E94502182E3E82E85E0F82E10E00FEF61
:10287000612FCE010E942D1284FD29C087FD2AC040
:10288000F70101937F01412F6FE3CE010E945712A0
:10289000412F60ECCE010E9457121130B1F4E12CAF
:1028A0000FE32FE740E060E0CE010E94761340E0A6
:1028B00060E0CE010E94691290E080E0DF91CF914C
:1028C0001F910F91FF90EF90089511E0D1CF82E01A
:1028D00090E0F4CF81E090E0F1CF80916905909194
:1028E0006A05891B990B089590916A058091690585
:1028F0002FEF3FEF981748F4E92FF0E0E559FA4F32
:10290000208130E09F5F90936A05C9010895E091AE
:102910006A0580916905E81730F4F0E0E559FA4F4F
:10292000808190E008958FEF9FEF08950895CF93F1
:10293000DF93EC01E0914105F09142053097F1F011
:1029400090916A05809169059817C0F090E0292F51
:1029500030E02617370754F4DE01A20FB31F4C9165
:1029600025593A4FD9014C939F5FF1CF10926A05D8
:1029700060936905CB01DF91CF911994DF91CF91DD
:102980000895E0914305F0914405309729F01092A5
:1029900047051092460519940895CF93DF931F922F
:1029A000CDB7DEB76983209145052223F9F0209148
:1029B0004605203258F021E030E0FC0133832283C9
:1029C00090E080E00F90DF91CF91089580914705CE
:1029D000E82FF0E0E85BFA4F998190838F5F809356
:1029E00047058093460581E090E0ECCF61E0CE01A1
:1029F00001960E94FD15F7CFCF92DF92EF92FF92E2
:102A00000F931F93CF93DF937C01CB018A01209119
:102A10004505222389F0EB016B01C40ED51ECC15B0
:102A2000DD0569F06991D701ED91FC910190F0818C
:102A3000E02DC7011995F3CF642F0E94FD15C80141
:102A4000DF91CF911F910F91FF90EF90DF90CF908A
:102A5000089510926A051092690510924705109228
:102A600046050E94D21581EC94E10E94291687E95F
:102A700094E10C94241681E08093450560936805E9
:102A8000109247051092460508950F93062F21E0F6
:102A90004091460568E475E0809168050E942E1714
:102AA0001092470510924605109245050F91089522
:102AB0004F925F926F927F92AF92BF92CF92EF92BE
:102AC000FF920F931F93CF93DF935C01F62ED42FC9
:102AD00028013901EE2019F10E943B15CE2DC4309A
:102AE00008F0C3E0C150B8F028E0C29FC001112433
:102AF000A301920104C056954795379527958A956D
:102B0000D2F7B901D501ED91FC910190F081E02D52
:102B1000C5011995E7CF60E0C5010E9445154D2F0D
:102B2000D13208F040E22C2D6BE675E08F2D0E942B
:102B30004A1610926A0580936905DF91CF911F9123
:102B40000F91FF90EF90CF90BF90AF907F906F90DC
:102B50005F904F900895CF92EF920F931F93C22EE4
:102B6000E12C00E010E098010E9458151F910F9190
:102B7000EF90CF90089521E00C94AB1561E00C9498
:102B80004515E5E3F5E01382128288EE93E0A0E0BC
:102B9000B0E084839583A683B78380E694E0918335
:102BA000808308951092FE0581E08093FC051092C9
:102BB000FB0561E084E10E948E2261E085E10E94D4
:102BC0008E22E9EBF0E080818E7F808380818D7F93
:102BD000808388E48093B80085E48093BC000895E6
:102BE000ECEBF0E080818A7B808360E084E10E94EE
:102BF0008E2260E085E10C948E222091AD05260F97
:102C00003327331F21323105ECF42091FE05FC01FE
:102C100090E080E0243069F082E00895A091AD0555
:102C20002191AC0141555A4FA40FB52FB11D2C93E2
:102C30000196861798F38091AD05680F6093AD05F6
:102C400080E0089581E008959093F2058093F10566
:102C500008959093F4058093F305089585EC80938F
:102C6000BC001092FE050895CF93DF9391E09093FE
:102C7000F605882361F0C091B800D091BA000E9497
:102C8000F0150E94D215D093BA00C093B800DF911E
:102C9000CF9108954F925F926F927F928F929F9201
:102CA000AF92BF92CF92DF92EF92FF920F931F935A
:102CB000CF93DF93D82F162F072FC42FB22E413278
:102CC00008F0A3C00E942B216B017C018091FE05BE
:102CD000811176C081E08093FE05B092FC059FEFE4
:102CE00090938B051092D0059C0F9093CF05809305
:102CF000FD058091FD05DD0FD82BD093FD0580915A
:102D0000FB05813009F083C01092FB050E942B2146
:102D10006B017C018091FD058093BB008091F705DC
:102D20009091F805A091F905B091FA05892B8A2BAD
:102D30008B2BA1F00E942B218090F7059090F80535
:102D4000A090F905B090FA056C197D098E099F09CC
:102D500086169706A806B90608F453C08091BC00F1
:102D600083FDD8CF85EC8093BC000E942B216B01A2
:102D70007C018091FE05813009F44BC08091D00523
:102D80008C1710F4C091D005A1EDB5E0912FE12F83
:102D9000F02F8E2F891B8C1708F45DC08C2FDF91CC
:102DA000CF911F910F91FF90EF90DF90CF90BF9048
:102DB000AF909F908F907F906F905F904F9008950D
:102DC0008091F7059091F805A091F905B091FA0569
:102DD000892B8A2B8B2B09F479CF0E942B214090D1
:102DE000F7055090F8056090F9057090FA056C1998
:102DF0007D098E099F09461657066806790608F070
:102E000065CF8091F5050E943416C0E0C7CF85EEEE
:102E1000AACF8091F7059091F805A091F905B0919E
:102E2000FA05892B8A2B8B2B09F4A3CF0E942B2127
:102E30008090F7059090F805A090F905B090FA05FC
:102E40006C197D098E099F0986169706A806B90692
:102E500008F08FCFD6CF8D9181939BCF4F925F9209
:102E60006F927F928F929F92AF92BF92EF92FF925A
:102E70000F931F93CF93DF93413208F0D9C0F22E06
:102E8000D42FE72E162FC82F0E942B214B015C0157
:102E90008091FE05811170C082E08093FE05009351
:102EA000FC058FEF80938B051092D005D093CF0552
:102EB000912FA1EDB5E0E12FFE2D8E2F891B8D17EF
:102EC00008F48FC01092FD058091FD05CC0FC82B32
:102ED000C093FD058091FB05813009F085C01092FB
:102EE000FB050E942B214B015C018091FD05809325
:102EF000BB008091F7059091F805A091F905B0917C
:102F0000FA05892B8A2B8B2BA1F00E942B21009193
:102F1000F7051091F8052091F9053091FA05681927
:102F200079098A099B09061717072807390708F442
:102F300044C08091BC0083FDD8CF85EC8093BC0059
:102F40000E942B214B015C01FF2029F08091FE059E
:102F5000823009F44BC080918B058F3F09F46AC021
:102F600080918B05803209F467C080918B05803396
:102F700009F464C084E026C08091F7059091F805BB
:102F8000A091F905B091FA05892B8A2B8B2B09F4B6
:102F90007FCF0E942B214090F7055090F80560905C
:102FA000F9057090FA05681979098A099B0946168E
:102FB00057066806790608F06BCF8091F5050E94E8
:102FC000341685E0DF91CF911F910F91FF90EF9024
:102FD000BF90AF909F908F907F906F905F904F9039
:102FE000089581918D9369CF85EEA8CF8091F705E3
:102FF0009091F805A091F905B091FA05892B8A2BDB
:103000008B2B09F4A1CF0E942B210091F705109181
:10301000F8052091F9053091FA05681979098A09AE
:103020009B09061717072807390708F08DCFC5CF6A
:1030300081E0C8CF80E0C6CF82E0C4CF83E0C2CFBA
:1030400085ED8093BC008091F7059091F805A091E3
:10305000F905B091FA050796A11DB11D23E0B695BB
:10306000A795979587952A95D1F72091BC0024FDC7
:1030700003C01092FE0508954091F7055091F805A0
:103080006091F9057091FA05452B462B472B69F3A2
:103090000097A105B10541F025E32A95F1F700005D
:1030A0000197A109B109E1CF8091F5050C9434167F
:1030B0001F920F920FB60F9211240BB60F922F93FF
:1030C0003F934F935F936F937F938F939F93AF93B0
:1030D000BF93EF93FF938091B900887F803609F406
:1030E0004EC008F041C0883209F4AAC028F58031EA
:1030F00009F49EC0C8F4882309F4FBC0883009F4A1
:1031000097C0FF91EF91BF91AF919F918F917F9168
:103110006F915F914F913F912F910F900BBE0F9048
:103120000FBE0F901F901895883109F489C0803226
:1031300041F780938B0515C0803409F49EC048F494
:103140008033B9F38833E9F680938B050E942E16FD
:10315000D8CF803509F485C0883509F496C0883405
:1031600081F60E942018CDCF883909F48CC038F53B
:10317000883729F050F4883611F0803711F683E053
:103180008093FE0510928C0557C0883809F47BC0E7
:10319000803919F0803809F0B4CF80918C058032E5
:1031A00008F071C0E0918C0581E08E0F80938C0552
:1031B0008091BB00F0E0E357FA4F80833DC0803B35
:1031C00039F0E0F4803A09F479C0883A09F099CFEF
:1031D00084E08093FE051092AE051092AD05E0915B
:1031E000F305F091F40519958091AD0581110FC09B
:1031F00081E08093AD051092AF0509C0803C09F4D1
:1032000076C0883C09F473C0883B09F07ACFE0911E
:10321000AE0581E08E0F8093AE05F0E0E155FA4FE8
:1032200080818093BB009091AE058091AD0529C04F
:103230008091FD058093BB0085EC8093BC0061CF3D
:103240009091D0058091CF05981758F5E091D00561
:1032500081E08E0F8093D005F0E0EF52FA4F80812D
:10326000E9CFE091D00581E08E0F8093D005809169
:10327000BB00F0E0EF52FA4F80839091D00580912F
:10328000CF059817C8F285E8D8CFE091D00581E046
:103290008E0F8093D0058091BB00F0E0EF52FA4F83
:1032A00080838091FC0581115CCF81E08093FB05D8
:1032B00084EA8093BC001092FE0523CF0E942E1654
:1032C00080918C05803230F4E0918C05F0E0E3577A
:1032D000FA4F108260918C0570E0E091F105F09159
:1032E000F2058DE895E0199510928C050ACF85ECD2
:1032F000E0CF10928B0535CF089508950F931F935B
:10330000CF93DF938C01EB0188E2FB0111928A9548
:10331000E9F74BE050E06EE674E0CE010E94102722
:103320001B8681E090E0A0E0B0E08C879D87AE87AF
:10333000BF87F80186819781A085B185888B998B9D
:10334000AA8BBB8B83E090E0A0E0B0E08C8B9D8BE0
:10335000AE8BBF8B1CA21DA21EA21FA2188E198E9F
:103360001A8E1B8E1C8E1D8E1E8E1F8E8AE097ED70
:10337000A3E2BCE388A399A3AAA3BBA3DF91CF9147
:103380001F910F9108950C94D3200F931F93FC016C
:1033900089E794E0918380834683578360877187B0
:1033A0002383158304831F910F9108950F931F9317
:1033B000CF93DF93EC01062F142F6B818C819D81BD
:1033C0000E943B158C819D81DC01ED91FC91019067
:1033D000F081E02D602F19958C819D81DC01ED91AC
:1033E000FC910190F081E02D612F19958C819D81D8
:1033F0000E94BE1581E0DF91CF911F910F9108953A
:10340000462FFC01628773876DE370E00E94D61936
:103410006EE170E080E090E00C9450211F93CF9318
:10342000DF93EC01162F6B818C819D810E943B15EF
:103430008C819D81DC01ED91FC910190F081E02D6A
:10344000612F19958C819D810E94BE1541E06B8191
:103450008C819D810E94BB158C819D81DC01ED9149
:10346000FC910284F385E02D1995DF91CF911F9196
:1034700008950F931F93CF93DF93EC018B018C8101
:103480009D810E94291570E060E0CE010E940E1A15
:10349000803AE9F470E060E0CE010E94001A40E258
:1034A0006FE370E0CE010E94D6196EE170E080E01B
:1034B00090E00E94502170E060E0CE010E940E1A60
:1034C000803AA1F06AE070E080E090E0F2CF68EE30
:1034D00073E080E090E00E94502170E060E0CE0157
:1034E0000E940E1A803AB1F280E02FC062E370E0D1
:1034F00080E090E00E94502140E06EE370E0CE0159
:103500000E94D6196AE070E080E090E00E945021AD
:1035100040E067E070E0CE010E94D61940E06FE322
:1035200070E0CE010E94D6196AE070E080E090E081
:103530000E945021B801CE010E94001A64E170E09F
:1035400080E090E00E94502181E0DF91CF911F91B7
:103550000F910895CF92DF92EF92FF920F931F93F6
:10356000CF93DF936B017A01E90165E370E00E947C
:103570000E1AC114D10439F0982F9295969596950C
:103580009370F6019083E114F10451F0282F30E09C
:1035900044E0359527954A95E1F72370F70120839C
:1035A000209741F0282F30E03595279535952795C0
:1035B000237028830115110519F08370F8018083A9
:1035C000DF91CF911F910F91FF90EF90DF90CF90FF
:1035D0000895DF92EF92FF920F931F93CF93DF93A3
:1035E000EC01162FD42EF52EE22E6B818C819D815D
:1035F0000E943B158C819D81DC01ED91FC91019035
:10360000F081E02D612F19958C819D810E94BE155E
:103610004E2D6B818C819D810E94BB150D2D1F2D20
:10362000E00EF12EF11C0E151F0569F08C819D81B5
:10363000DC01ED91FC910284F385E02D1995F801F0
:1036400081938F01F0CF81E0DF91CF911F910F9196
:10365000FF90EF90DF900895AF92BF92CF92DF92EC
:10366000EF92FF920F931F93CF93DF9300D000D080
:10367000CDB7DEB78C01CB015A012CE0F8011192D5
:103680002A95E9F7AE014F5F5F4F26E0FA011192EC
:103690002A95E9F726E0B5010E94E91A69817A8145
:1036A000CB80DC80ED80FE80F4E1AF16B10441F107
:1036B000D8F4E8E0AE16B10409F456C0FEE0AF1647
:1036C000B104F1F0C80126960FB6F894DEBF0FBE24
:1036D000CDBFDF91CF911F910F91FF90EF90DF90C1
:1036E000CF90BF90AF90089588E2A816B104E1F1A1
:1036F000EEE2AE16B104C1F1FAE1AF16B10411F772
:10370000072E000C880B990B0E94012420E030E06A
:1037100040E85DE30E948D24F80160837183828319
:103720009383B601DD0C880B990B0E94012420E0E5
:1037300030E040E85DE30E948D24F80164837583E6
:1037400086839783B701FF0C880B990B0E94012495
:1037500020E030E040E85DE30E948D24F8016087BE
:10376000718782879387AECF072E000C880B990B49
:103770000E94012420E030E048EC52E40E945723EC
:10378000F8016083718382839383B601DD0C880B1B
:10379000990B0E94012420E030E048EC52E40E94A2
:1037A0005723F8016483758386839783B701FF0CE1
:1037B000880B990B0E94012420E030E048EC52E491
:1037C0000E945723CBCFEF92FF920F931F93CF937B
:1037D000DF93CDB7DEB72C970FB6F894DEBF0FBEE0
:1037E000CDBF7C018B01FB01349680E2DF011D928D
:1037F0008A95E9F784E290E0A0E0B0E0FB018083E5
:103800009183A283B383F70186819781A085B185D7
:10381000FB0184839583A683B78383E090E0A0E0D7
:10382000B0E080879187A287B3870E941F21D801CB
:1038300050966D937D938D939C9353974AE150E0FE
:10384000B701CE0101960E942C1B89819A81AB8120
:10385000BC81F801848B958BA68BB78B8D819E8163
:10386000AF81B885808F918FA28FB38F89859A851C
:10387000AB85BC85848F958FA68FB78F81E02C9602
:103880000FB6F894DEBF0FBECDBFDF91CF911F9171
:103890000F91FF90EF900895FB014081518162816B
:1038A0007381DC014D935D936D937C9313974481F9
:1038B00055816681778114964D935D936D937C93CA
:1038C00017974085518562857385FC014087518734
:1038D000628773870895AF92BF92CF92DF92EF9283
:1038E000FF920F931F93CF93DF93CDB7DEB7689707
:1038F0000FB6F894DEBF0FBECDBF6C018B015A012D
:10390000FB01349680E2DF011D928A95E9F784E29B
:1039100090E0A0E0B0E0FB0180839183A283B383B9
:10392000F60186819781A085B185FB01848395830B
:10393000A683B7830E941F21D80150966D937D9373
:103940008D939C9353977E01BDE0EB0EF11C8CE0B0
:10395000F70111928A95E9F7F8E2AF16B10409F080
:1039600041C08AE090E0A0E0B0E0F8018087918754
:10397000A287B38748E250E0B601CE0101960E94CB
:103980002C1BBE016F5F7F4FC7010E944C1C8D85B1
:103990009E85AF85B889F801848B958BA68BB78BF4
:1039A00089899A89AB89BC89808F918FA28FB38FC7
:1039B0008D899E89AF89B88D848F958FA68FB78F9B
:1039C00081E068960FB6F894DEBF0FBECDBFDF91E1
:1039D000CF911F910F91FF90EF90DF90CF90BF900C
:1039E000AF900895F8E0AF16B10461F481E090E083
:1039F000A0E0B0E0F80180879187A287B38748E014
:103A000050E0BACFFEE2AF16B10461F481E090E07D
:103A1000A0E0B0E0F80180879187A287B3874EE2EB
:103A200050E0AACFFAE1AF16B10461F483E090E070
:103A3000A0E0B0E0F80180879187A287B3874AE1D0
:103A400050E09ACFF4E1AF16B10461F48BE090E05E
:103A5000A0E0B0E0F80180879187A287B38744E1B6
:103A600050E08ACFFEE0AF16B10409F0A9CF82E0A2
:103A700090E0A0E0B0E0F80180879187A287B3874B
:103A80004EE050E079CFFC01918D228D892F90E09E
:103A9000805C9F4F821B91098F7399270895FC01C9
:103AA000918D828D981731F0828DE80FF11D858DF3
:103AB00090E008958FEF9FEF0895FC01918D828D26
:103AC000981761F0A28DAE0FBF2FB11D5D968C913E
:103AD000928D9F5F9F73928F90E008958FEF9FEF7D
:103AE0000895FC01538D448D252F30E0842F90E004
:103AF000821B930B541710F0CF96089501970895E9
:103B000086E09FE1892B49F080E090E0892B29F045
:103B10000E94061F81110E94000080E090E0892B26
:103B200049F080E090E0892B29F00E94000081118B
:103B30000E94000080E090E0892B49F080E090E056
:103B4000892B29F00E94000081110E94000080E072
:103B500090E0892B49F080E090E0892B29F00E94C9
:103B6000000081110C9400000895FC01A48DA80FA1
:103B7000B92FB11DA35ABF4F2C91848D90E00196AF
:103B80008F739927848FA689B7892C93A089B189CF
:103B90008C91837080648C93938D848D981306C070
:103BA0000288F389E02D80818F7D80830895CF93F3
:103BB000DF93EC01888D8823B9F0AA89BB89E88955
:103BC000F9898C9185FD03C0808186FD0DC00FB6FB
:103BD00007FCF7CF8C9185FFF2CF808185FFEDCF79
:103BE000CE010E94B51DE9CFDF91CF910895EF92EC
:103BF000FF920F931F93CF93DF93EC0181E0888FA7
:103C00009B8D8C8D98131AC0E889F989808185FF76
:103C100015C09FB7F894EE89FF896083E889F98918
:103C200080818370806480839FBF81E090E0DF911A
:103C3000CF911F910F91FF90EF900895F62E0B8D6D
:103C400010E00F5F1F4F0F731127E02E8C8D8E1128
:103C50000CC00FB607FCFACFE889F989808185FF8F
:103C6000F5CFCE010E94B51DF1CFEB8DEC0FFD2FEE
:103C7000F11DE35AFF4FF0829FB7F8940B8FEA894A
:103C8000FB8980818062CFCFCF92DF92EF92FF924B
:103C90001F93CF93DF93EC016A017B01122FE88918
:103CA000F98982E08083C11481EED806E104F10431
:103CB000A1F060E079E08DE390E0A70196010E9419
:103CC000FA222150310941095109569547953795F6
:103CD0002795211580E1380798F0E889F989108245
:103CE00060E874E88EE190E0A70196010E94FA2254
:103CF0002150310941095109569547953795279526
:103D0000EC85FD853083EE85FF852083188EEC8958
:103D1000FD891083EA89FB89808180618083EA893B
:103D2000FB89808188608083EA89FB898081806843
:103D30008083EA89FB8980818F7D8083DF91CF91A9
:103D40001F91FF90EF90DF90CF9008951F920F92F8
:103D50000FB60F9211240BB60F922F938F939F9350
:103D6000EF93FF93E0910F06F09110068081E091B0
:103D70001506F091160682FD1DC0908180911806EF
:103D80008F5F8F7320911906821741F0E09118061A
:103D9000F0E0E150FA4F958F80931806FF91EF9174
:103DA0009F918F912F910F900BBE0F900FBE0F9090
:103DB0001F9018958081F2CF1F920F920FB60F922D
:103DC00011240BB60F922F933F934F935F936F93F2
:103DD0007F938F939F93AF93BF93EF93FF938FEF57
:103DE00095E00E94B51DFF91EF91BF91AF919F911A
:103DF0008F917F916F915F914F913F912F910F9094
:103E00000BBE0F900FBE0F901F9018958FEF95E08F
:103E10000E94431D21E0892B09F420E0822F0895A0
:103E2000EFEFF5E01382128288EE93E0A0E0B0E0BD
:103E300084839583A683B78387E894E09183808306
:103E400085EC90E09587848784EC90E0978786875F
:103E500080EC90E0918B808B81EC90E0938B828B57
:103E600082EC90E0958B848B86EC90E0978B868B30
:103E7000118E128E138E148E0895AF92BF92CF9230
:103E8000DF92EF92FF920F931F93CF93DF936C011A
:103E90007B018B01040F151FEB015E01AE18BF08FB
:103EA000C017D10759F06991D601ED91FC910190AD
:103EB000F081E02DC6011995892B79F7C501DF91B5
:103EC000CF911F910F91FF90EF90DF90CF90BF9017
:103ED000AF900895FB0101900020E9F73197AF0101
:103EE000461B570BDC01ED91FC910280F381E02D24
:103EF0001994DB0114964D915C9115976D917C910D
:103F0000DC01ED91FC910280F381E02D19946115A3
:103F1000710511F00C946A1F90E080E00895DC01B7
:103F2000ED91FC910190F081E02D199465E974E028
:103F30000C946A1F0F931F93CF93DF93EC010E94A1
:103F4000791F8C01CE010E94961F800F911FDF9177
:103F5000CF911F910F9108950F931F93CF93DF93EC
:103F60008C01D0E0C0E06115710519F00E946A1F54
:103F7000EC01C8010E94961F8C0F9D1FDF91CF910D
:103F80001F910F910895FC0180819181009711F09C
:103F90000C9496250895CF93DF93EC018881998145
:103FA000009711F00E949625198218821D821C82AA
:103FB0001B821A82DF91CF9108950F931F93CF93A5
:103FC000DF93EC018B016F5F7F4F888199810E94A5
:103FD0001F26009751F0998388831B830A8381E011
:103FE000DF91CF911F910F91089580E0F9CFCF938A
:103FF000DF93EC0188819981892B49F08A819B812B
:104000008617970720F081E0DF91CF910895CE01C8
:104010000E94DD1F8823C1F38C819D81892B99F734
:10402000E881F9811082EFCFEF92FF920F931F93F7
:10403000CF93DF93EC017B018A01BA010E94F71F45
:1040400081110BC0CE010E94CB1FCE01DF91CF9119
:104050001F910F91FF90EF9008951D830C83B7017E
:10406000888199810E940927F0CFFC01118210827A
:1040700013821282158214826115710551F0FB01C1
:1040800001900020E9F73197AF01461B570B0C94C4
:1040900014200895CF93DF93EC01FB018617970757
:1040A00049F0608171816115710541F0448155814C
:1040B0000E941420CE01DF91CF9108950E94CB1F62
:1040C000F9CFFC01118210821382128215821482B0
:1040D0000C944A20EF92FF920F931F93CF93DF939C
:1040E0006115710541F480E0DF91CF911F910F912F
:1040F000FF90EF90089541155105B1F07B01EC015F
:104100000C811D81040F151FB8010E94F71F882321
:1041100051F3288139818C819D81B701820F931FD2
:104120000E9409271D830C8381E0DECFCF93DF93AC
:10413000EC01FB0144815581608171810E946A20FC
:10414000811103C0CE010E94CB1FCE01DF91CF9120
:104150000895CF93DF93EC016115710539F4CE0119
:104160000E94CB1FCE01DF91CF910895FB010190FA
:104170000020E9F73197AF01461B570B0E946A20D8
:10418000882369F3EFCF08950E9489210E94C320FC
:104190000E949504C0E8DDE10E9423052097E1F329
:1041A0000E94801DF9CF0C9496251F920F920FB696
:1041B0000F9211242F933F938F939F93AF93BF93AD
:1041C00080919D0690919E06A0919F06B091A006B9
:1041D00030919C0623E0230F2D3758F50196A11D41
:1041E000B11D20939C0680939D0690939E06A093FC
:1041F0009F06B093A0068091A1069091A206A0917F
:10420000A306B091A4060196A11DB11D8093A1063D
:104210009093A206A093A306B093A406BF91AF917A
:104220009F918F913F912F910F900FBE0F901F90F4
:10423000189526E8230F0296A11DB11DD2CF2FB7E6
:10424000F89460919D0670919E0680919F069091D2
:10425000A0062FBF08953FB7F8948091A1069091D2
:10426000A206A091A306B091A40626B5A89B05C0FE
:104270002F3F19F00196A11DB11D3FBFBA2FA92FE5
:10428000982F8827BC01CD01620F711D811D911DE2
:1042900042E0660F771F881F991F4A95D1F708954E
:1042A0008F929F92AF92BF92CF92DF92EF92FF9246
:1042B0006B017C010E942B214B015C01C114D104D4
:1042C000E104F104E9F00E94E5220E942B21681923
:1042D00079098A099B09683E73408105910570F34D
:1042E00021E0C21AD108E108F10888EE880E83E0C7
:1042F000981EA11CB11CC114D104E104F10429F7DA
:10430000FF90EF90DF90CF90BF90AF909F908F90F5
:104310000895789484B5826084BD84B5816084BD3D
:1043200085B5826085BD85B5816085BDEEE6F0E02E
:10433000808181608083E1E8F0E01082808182608A
:104340008083808181608083E0E8F0E0808181600B
:104350008083E1EBF0E0808184608083E0EBF0E03B
:10436000808181608083E1E9F0E0808182608083E8
:10437000808181608083E0E9F0E0808181608083DA
:10438000E1EAF0E0808182608083808181608083C7
:10439000E0EAF0E0808181608083E1E2F1E0808109
:1043A00082608083808181608083E0E2F1E08081AF
:1043B00081608083EAE7F0E080818460808380818F
:1043C0008260808380818160808380818068808337
:1043D0001092C10008958150823108F05AC0E82F30
:1043E000F0E08827E950FE4D8F4F0C943B231722B5
:1043F0001B2209220F22132249221E2224222822B4
:104400002E22322236223C224022492244224A22B3
:104410004E22809180008F77809380000895809154
:1044200080008F7DF9CF80918000877FF5CF84B5A4
:104430008F7784BD089584B58F7DFBCF8091B000C8
:104440008F778093B00008958091B0008F7DF9CF71
:10445000809190008F7780939000089580919000D4
:104460008F7DF9CF80919000877FF5CF8091A0005C
:104470008F778093A00008958091A0008F7DF9CF61
:104480008091A000877FF5CF809120018F77809366
:1044900020010895809120018F7DF9CF8091200126
:1044A000877FF5CFCF93DF9390E0FC01E75EFB4F72
:1044B0002491815A9B4FFC0184918823C9F090E09C
:1044C000880F991FFC01E752FB4FA591B491FC01A5
:1044D000E154FB4FC591D49161110DC09FB7F89481
:1044E0008C91209582238C938881282328839FBFD9
:1044F000DF91CF910895623051F49FB7F8943C91C9
:10450000822F809583238C93E8812E2BEFCF8FB75A
:10451000F894EC912E2B2C938FBFEACF1F93CF935F
:10452000DF93282F30E0F901ED52FC4F8491F9011F
:10453000E75EFB4FD491F901E15AFB4FC491CC23C4
:10454000A9F0162F81110E94EB21EC2FF0E0EE0F65
:10455000FF1FE154FB4FA591B4918FB7F894EC91F4
:10456000111108C0D095DE23DC938FBFDF91CF916E
:104570001F910895DE2BF8CFCF93DF93282F30E0E3
:10458000F901ED52FC4F8491F901E75EFB4FD491A4
:10459000F901E15AFB4FC491CC23A1F081110E9493
:1045A000EB21EC2FF0E0EE0FFF1FEB55FB4FA59139
:1045B000B491EC91ED2381E090E009F480E0DF918B
:1045C000CF91089580E090E0FACF089597FB072EF1
:1045D00016F4009407D077FD09D00E94432307FC0E
:1045E00005D03EF4909581959F4F08957095619503
:1045F0007F4F0895A1E21A2EAA1BBB1BFD010DC01F
:10460000AA1FBB1FEE1FFF1FA217B307E407F50782
:1046100020F0A21BB30BE40BF50B661F771F881F5E
:10462000991F1A9469F760957095809590959B01F4
:10463000AC01BD01CF010895052E97FB1EF4009437
:104640000E94332357FD07D00E94FA2207FC03D0B3
:104650004EF40C94332350954095309521953F4F5F
:104660004F4F5F4F089590958095709561957F4F5E
:104670008F4F9F4F0895EE0FFF1F881F8BBF07902E
:10468000F691E02D1994AA1BBB1B51E107C0AA1F8C
:10469000BB1FA617B70710F0A61BB70B881F991FE3
:1046A0005A95A9F780959095BC01CD0108950E9477
:1046B0006B230C9453240E944C2458F00E944524F0
:1046C00040F029F45F3F29F00C943C2451110C94E4
:1046D00087240C9442240E94642468F39923B1F344
:1046E000552391F3951B550BBB27AA276217730718
:1046F000840738F09F5F5F4F220F331F441FAA1FAC
:10470000A9F335D00E2E3AF0E0E832D09150504067
:10471000E695001CCAF72BD0FE2F29D0660F771F15
:10472000881FBB1F261737074807AB07B0E809F0FB
:10473000BB0B802DBF01FF2793585F4F3AF09E3F80
:10474000510578F00C943C240C9487245F3FE4F3EB
:10475000983ED4F3869577956795B795F7959F5FC3
:10476000C9F7880F911D9695879597F90895E1E00F
:10477000660F771F881FBB1F621773078407BA076E
:1047800020F0621B730B840BBA0BEE1F88F7E095C9
:1047900008950E94D0236894B1110C948724089541
:1047A0000E946C2488F09F5798F0B92F9927B75131
:1047B000B0F0E1F0660F771F881F991F1AF0BA95C5
:1047C000C9F714C0B13091F00E948624B1E0089579
:1047D0000C948624672F782F8827B85F39F0B93F6B
:1047E000CCF3869577956795B395D9F73EF4909578
:1047F0008095709561957F4F8F4F9F4F0895E894F6
:1048000009C097FB3EF490958095709561957F4F18
:104810008F4F9F4F9923A9F0F92F96E9BB279395C6
:10482000F695879577956795B795F111F8CFFAF4D6
:10483000BB0F11F460FF1BC06F5F7F4F8F4F9F4F07
:1048400016C0882311F096E911C0772321F09EE865
:10485000872F762F05C0662371F096E8862F70E0CB
:1048600060E02AF09A95660F771F881FDAF7880FA5
:104870009695879597F9089597F99F6780E870E076
:1048800060E008959FEF80EC089500240A941616C6
:10489000170618060906089500240A94121613062E
:1048A000140605060895092E0394000C11F48823BC
:1048B00052F0BB0F40F4BF2B11F460FF04C06F5FD8
:1048C0007F4F8F4F9F4F089557FD9058440F551FAE
:1048D00059F05F3F71F04795880F97FB991F61F082
:1048E0009F3F79F087950895121613061406551FF9
:1048F000F2CF4695F1DF08C0161617061806991F65
:10490000F1CF86957105610508940895E894BB2759
:1049100066277727CB0197F908950E94A0240C946D
:1049200053240E94452438F00E944C2420F0952303
:1049300011F00C943C240C94422411240C948724F0
:104940000E94642470F3959FC1F3950F50E0551FAA
:10495000629FF001729FBB27F00DB11D639FAA27D4
:10496000F00DB11DAA1F649F6627B00DA11D661F23
:10497000829F2227B00DA11D621F739FB00DA11D44
:10498000621F839FA00D611D221F749F3327A00DFE
:10499000611D231F849F600D211D822F762F6A2F9A
:1049A00011249F5750409AF0F1F088234AF0EE0FFF
:1049B000FF1FBB1F661F771F881F91505040A9F72C
:1049C0009E3F510580F00C943C240C9487245F3F5B
:1049D000E4F3983ED4F3869577956795B795F79568
:1049E000E7959F5FC1F7FE2B880F911D96958795E0
:1049F00097F908950F931F93CF93DF93823091051A
:104A000010F482E090E0E091A706F091A80630E073
:104A100020E0B0E0A0E0309799F42115310509F4C9
:104A20004AC0281B390B24303105D8F58A819B8177
:104A30006115710589F1FB0193838283FE0111C029
:104A4000408151810281138148175907E0F04817CE
:104A5000590799F4109761F012960C9312971396D8
:104A60001C933296CF01DF91CF911F910F91089542
:104A70000093A7061093A806F4CF2115310551F035
:104A80004217530738F0A901DB019A01BD01DF018C
:104A9000F801C1CFEF01F9CF9093A8068093A70644
:104AA000CDCFFE01E20FF31F819391932250310984
:104AB00039832883D7CF2091A5063091A606232BD2
:104AC00041F420910202309103023093A606209314
:104AD000A50620910002309101022115310541F413
:104AE0002DB73EB74091040250910502241B350BAF
:104AF000E091A506F091A606E217F307A0F42E1B9D
:104B00003F0B2817390778F0AC014E5F5F4F241731
:104B1000350748F04E0F5F1F5093A6064093A50639
:104B2000819391939FCFF0E0E0E09CCFCF93DF9310
:104B30000097E9F0FC01329713821282A091A70638
:104B4000B091A806ED0130E020E01097A1F420819B
:104B50003181820F931F2091A5063091A606281758
:104B6000390709F061C0F093A606E093A506DF912E
:104B7000CF910895EA01CE17DF07E8F54A815B81FE
:104B80009E0141155105B1F7E901FB83EA83499183
:104B90005991C40FD51FEC17FD0761F480819181F5
:104BA0000296840F951FE9019983888382819381FE
:104BB0009B838A83F0E0E0E012968D919C9113979D
:104BC0000097B9F52D913C911197CD010296820F76
:104BD000931F2091A5063091A6062817390739F6AC
:104BE000309751F51092A8061092A706B093A6062A
:104BF000A093A506BCCFD383C28340815181840F8B
:104C0000951FC817D90761F44E5F5F4F888199815E
:104C1000480F591F518340838A819B8193838283EC
:104C20002115310509F0B0CFF093A806E093A7064F
:104C30009ECFFD01DC01C0CF13821282D7CF4F92ED
:104C40005F926F927F928F929F92AF92BF92CF921C
:104C5000DF92EF92FF920F931F93CF93DF938C011C
:104C6000009799F4CB01DF91CF911F910F91FF90A5
:104C7000EF90DF90CF90BF90AF909F908F907F90FC
:104C80006F905F904F900C94FA24FC01E60FF71F91
:104C90009C0122503109E217F30708F4AEC0D90194
:104CA000CD91DC911197C617D70720F1C530D105FA
:104CB00078F0CE0104978617970750F0C61BD70BE4
:104CC0002297C193D1936D937C93CF010E94962537
:104CD000C801DF91CF911F910F91FF90EF90DF906E
:104CE000CF90BF90AF909F908F907F906F905F908C
:104CF0004F9008955B01AC1ABD0A4C018C0E9D1EAD
:104D0000A091A706B091A806512C412CF12CE12CC2
:104D1000109731F58091A5069091A6068815990502
:104D200009F05CC04616570608F058C08091000292
:104D300090910102009741F48DB79EB74091040213
:104D400050910502841B950BE817F90708F055C030
:104D5000F093A606E093A506F90171836083B8CFAE
:104D60008D919C91119712966C90129713967C904E
:104D70001397A815B90559F56C0142E0C40ED11C72
:104D8000CA14DB0420F1AC014A195B09DA0112965E
:104D9000159780F06282738251834083D9016D93AD
:104DA0007C93E114F10471F0D7011396FC93EE9318
:104DB00012978ECF22968C0F9D1FF90191838083CD
:104DC000F301EFCFF093A806E093A70681CF481632
:104DD000590608F42C017D01D3019ACFCB010E9422
:104DE000FA247C01009749F0AE01B8010E94002727
:104DF000C8010E94962587016BCF10E000E068CFC4
:104E0000FB01DC0102C001900D9241505040D8F7E7
:104E10000895FB01DC0101900D920020E1F7089557
:104E2000FB01DC014150504048F001900D92002000
:104E3000C9F701C01D9241505040E0F708950F930B
:104E40001F93CF93DF93CDB7DEB72E970FB6F894AD
:104E5000DEBF0FBECDBF0E891F8986E08C831A830B
:104E600009838FEF9FE79E838D83AE01465E5F4F80
:104E7000688D798DCE0101960E944F272F8138854C
:104E8000020F131FF80110822E960FB6F894DEBFA2
:104E90000FBECDBFDF91CF911F910F9108952F923B
:104EA0003F924F925F926F927F928F929F92AF92BA
:104EB000BF92CF92DF92EF92FF920F931F93CF9307
:104EC000DF9300D000D000D01F921F92CDB7DEB785
:104ED0007C013B018A01FC0117821682838181FFDC
:104EE000DDC1CE0101965C01F7019381F30193FDD1
:104EF000859193FF81913F01882309F453C1853245
:104F000039F493FD859193FF81913F01853229F416
:104F1000B70190E00E946729E7CF912C212C312C1A
:104F2000FFE1F31538F08B3211F190F4803209F182
:104F3000833229F137FC3CC020ED280F2A3050F590
:104F400036FE20C08AE0989E200D1124922E06C0C5
:104F50008D3291F0803371F7689430F8F30193FD4E
:104F6000859193FF81913F018111DACF21C068942F
:104F700031F8689432F8F2CF689433F8EFCF689440
:104F800034F8ECCFEAE02E9E200D1124222E6894F6
:104F900035F8E4CF8E3229F436FC04C1689436F833
:104FA000DDCF8C3619F4689437F8D8CF8836B1F253
:104FB000982F9F7D95549330E0F08336A1F183378D
:104FC000C1F1833509F063C02801F2E04F0E511C96
:104FD000F801C080D180692D70E036FC02C06FEF0F
:104FE0007FEFC6010E9451294C01689437F8820175
:104FF0000AC00C5F1F4FFFE3F98388248394912C30
:105000006501E89437F833FE2DC0522C81149104C9
:1050100071F5552009F468CFB70180E290E00E9455
:1050200067295A94F6CFF801808189830E5F1F4F5C
:10503000E4CF2801F2E04F0E511CF801C080D1806E
:10504000692D70E036FC02C06FEF7FEFC6010E9451
:105050005C294C018201D5CFB70180E290E00E942B
:1050600067292A942814190409F0B0F7CECFF60165
:1050700037FC859137FE81916F01B70190E00E9466
:10508000672951105A94F1E08F1A9108BFCF8436E6
:1050900019F0893609F077C0F80137FE6BC06081DE
:1050A0007181828193810C5F1F4FF32DFF763F2E1C
:1050B00097FF09C090958095709561957F4F8F4FB0
:1050C0009F4F689437F82AE030E0A5010E949729A5
:1050D000C82ECA188C2C432C36FE0CC0E89440F81D
:1050E000C91440F434FE05C032FC03C0F32DFE7E2B
:1050F0004F2E892C44FEAAC0FE01EC0DF11D8081CB
:10510000803309F09CC0242D297E422E842D887086
:10511000582E43FCAAC040FEA4C09C2C821418F454
:105120002C0C922C981844FEA6C0B70180E390E0A6
:105130000E94672942FE09C088E790E041FE02C054
:1051400088E590E0B7010E946729C91408F49FC060
:10515000CA94D12C9FEFC91AD90ACA0CDB1CF601DC
:1051600082916F01B70190E00E946729AC14BD04E1
:10517000B1F74FCF60817181072E000C880B990B1E
:105180000E5F1F4F92CFD32CE894D4F82AE030E082
:105190008537E1F1232D297FD22E8F36A9F1F0F446
:1051A000883551F1F701868197812B960FB6F894D7
:1051B000DEBF0FBECDBFDF91CF911F910F91FF904A
:1051C000EF90DF90CF90BF90AF909F908F907F90A7
:1051D0006F905F904F903F902F900895803749F0E7
:1051E000883701F7D4FE02C06894D2F820E130E09D
:1051F0000DC06894D4F8F6CF34FE03C0822F8660C9
:10520000D82E20E132E002C028E030E0F801D7FEDD
:105210000FC060817181828193810C5F1F4FA50156
:105220000E949729C82ECA183D2CE89437F852CF0F
:105230006081718190E080E00E5F1F4FF0CF42FCF3
:1052400002C0839463CF8394839460CF842D867847
:1052500009F45CCFF6CFB70180E290E00E946729A5
:1052600083948214C0F3512C5ECF522C58188214B0
:1052700008F459CFF8CF842D867809F466CF8BE2F5
:1052800041FE80E247FC8DE2B70190E05CCFB701C0
:1052900080E390E00E9467299A9457CF8FEF9FEFA9
:1052A00084CFFC010590615070400110D8F78095C3
:1052B00090958E0F9F1F0895FC01615070400190E2
:1052C0000110D8F7809590958E0F9F1F08950F932A
:1052D0001F93CF93DF93182F092FEB018B8181FD53
:1052E00009C01FEF0FEF812F902FDF91CF911F91FA
:1052F0000F91089582FF14C02E813F818C819D8182
:10530000281739073CF4E881F981CF010196998388
:10531000888310838E819F8101969F838E83E3CF44
:10532000E885F985812F1995892BA1F3DACFFA0148
:10533000AA27283051F1203181F1E8946F936E7FD4
:105340006E5F7F4F8F4F9F4FAF4FB1E03ED0B4E0C5
:105350003CD0670F781F891F9A1FA11D680F791F06
:105360008A1F911DA11D6A0F711D811D911DA11D17
:1053700020D009F468943F912AE0269F1124301927
:10538000305D3193DEF6CF010895462F4770405DC2
:105390004193B3E00FD0C9F7F6CF462F4F70405D71
:1053A0004A3318F0495D31FD4052419302D0A9F7CC
:1053B000EACFB4E0A6959795879577956795BA95C6
:1053C000C9F700976105710508959B01AC010A2E8C
:1053D00006945795479537952795BA95C9F7620F63
:1053E000731F841F951FA01D089512E0CEE7D2E021
:1053F00000E006C0802FFE010E943B232196011D84
:0E540000CF37D10780E00807A9F7F894FFCF57
:10540E000000A90680000221030000000000000435
:10541E009503000000000000242424203A3A3A208C
:10542E00456E746572696E6720636F6D6D616E6433
:10543E00206D6F64650024242400203A3A3A20003F
:10544E002D2D2D00537769746368696E6720626134
:10545E0075642072617465004368616E67696E677A
:10546E0020626175647261746520746F2000552C22
:10547E00002C4E004170706C79696E6720626C75FD
:10548E0065746F6F746820636F6E6669670053771B
:10549E006974636820746F2050616972696E672049
:1054AE004D6F64652028767320536C6176652C20D1
:1054BE004D61737465722C204454522900534D2C47
:1054CE0036005072696E74206F757420434F4E4EC5
:1054DE004543542F444953434F4E4E454354206D3C
:1054EE006573736167657320666F7220646562759C
:1054FE006767696E6700534F2C250053657420480B
:10550E00494420666C61677320746F206265206B5E
:10551E006579626F6172642F636F6D626F206D6F5C
:10552E007573650053482C303033330053776974EC
:10553E00636820746F20484944206D6F6465005382
:10554E007E2C360053657420646576696365206E23
:10555E00616D6500534E2C00537769746368207437
:10556E006F206C6F77206C6174656E6379206D6F40
:10557E0064650053512C3136005265626F6F7400B2
:10558E00522C310053657474696E677320617070AC
:10559E006C6965642C20626C7565746F6F7468201D
:1055AE007265626F6F74656400496E697469616CCF
:1055BE00697A696E6720446973706C6179004E6F09
:1055CE0020424E4F303535206465746563746564D2
:1055DE0000736574757020636F6D706C65746521F2
:1055EE000031392E32004E6572662041522D4C200C
:1055FE00436F6E74726F6C6C657200533A25642043
:10560E00473A256420413A2564204D3A2564004DE1
:10561E00733A256C75004C6F6F70733A20256C755C
:10562E00004C6F6F70732F5365636F6E643A202555
:10563E00640000000000C1063D1F9D061D073607D1
:10564E00A0061E0700000000110F3D1F9D06470912
:10565E0000000000110F3D1F9D06470900000000CD
:10566E00CD14FC149D0696146D1474148714424EBA
:10567E004F30353500000000007D19C3197C19E349
:10568E001B7E1900000000F71D3D1F711DD71D4325
:08569E001D5D1D4F1D0D0A00EA
:00000001FF
